S01D0000415474696E7934352D5350492D4E524632344C30312E7372656306
S11300000EC028C027C026C025C024C023C022C0DB
S113001021C020C01FC01EC01DC01CC01BC0112495
S11300201FBECFE5D1E0DEBFCDBF10E0A0E6B0E05B
S1130030E8ECF2E002C005900D92A036B107D9F7C2
S113004020E0A0E6B0E001C01D92A036B207E1F7BF
S113005020D038C1D5CF8FB991E19DB983E18DB955
S11300609DB98DB99DB98DB99DB98DB99DB98DB91C
S11300709DB98DB99DB98DB99DB98DB98FB10895CB
S113008086E087BD089566B987B9089582EE86B97A
S1130090089580E090D0811101C0DDDFFFCFAF92E1
S11300A0BF92CF92DF92EF92FF920F931F93CF9361
S11300B0DF93A62EC098CFDFAA2011F1D0E0C0E0D4
S11300C0B12CC12CD12CE12CF12C00E010E080E00B
S11300D0C2DF2C2F282B3B2D4C2D5D2D6E2D7F2D1B
S11300E0802F912F08E0ABD0C22FB32EC42ED52E73
S11300F0E62EF72E082F192FDF5FDA11E8CF08C09C
S1130100C0E0B12CC12CD12CE12CF12C00E010E08A
S1130110C09A2C2F3B2D4C2D5D2D6E2D7F2D802FC5
S1130120912F08E0A7D0DF91CF911F910F91FF90FD
S1130130EF90DF90CF90BF90AF9008959F92AF92D1
S1130140BF92CF92DF92EF92FF920F931F93CF93C0
S1130150DF93C22FD32FF42ED52EB62EA72EC09800
S1130160806279DF982EEE20C1F0C12C802F73DFDE
S1130170202F312F4C2F5D2F6F2D7D2D8B2D9A2D00
S113018008E078D0022F132FC42FD52FF62ED72EA8
S1130190B82EA92EC394CE10E9CFC09A892DDF9131
S11301A0CF911F910F91FF90EF90DF90CF90BF9070
S11301B0AF909F900895EF920F931F93CF93C82F02
S11301C0EE24E39400E210E020E030E040E050E070
S11301D060E070E081E1B2DFCC23B1F062EA80E25A
S11301E052DF54DF0AE020E030E040E050E060E01D
S11301F070E080E0A3DF61E080E051DFE1E0AAE0AD
S113020055D0B9F0E0E015C03BDFEE24E3940BE0F9
S113021010E020E030E040E050E060E070E080E09A
S11302208DDF61E080E03BDFE1E0ABE03FD009F04F
S1130230E0E08E2FCF911F910F91EF9008950F93CF
S1130240083090F0982F872F762F652F542F432F47
S1130250322F22270850F4CF220F331F441F551F7B
S1130260661F771F881F991F0A95B2F70F9108958B
S113027097FB10F8169400080F93083098F0085074
S1130280232F342F452F562F672F782F892F902D0A
S1130290F4CF0594979587957795679557954795E6
S11302A0379527950A95AAF70F9108950024A7FD7D
S11302B000942A1730054005500560057005800537
S10B02C090050895F894FFCFA6
S9030000FC
